:020000040000FA
:10000000860183160030860083121930CE00053039
:10001000CD00213086001930CE000530CD000130F2
:10002000BF00BE00BD00BD0B1328BE0B1228BF0BC6
:100030001128CE0B0F281C28223086000130BF006B
:10004000BE00BD00BD0B2228BE0B2128BF0B2028FF
:10005000CD0B1E282B280C3086001930CE00053021
:10006000CD000130BF00BE00BD00BD0B3528BE0B6A
:100070003428BF0B3328CE0B31283E28143086009D
:100080000130BF00BE00BD00BD0B4428BE0B43289D
:0A009000BF0B4228CD0B40280928C1
:04009A0000340034FA
:02400E00F93F78
:00000001FF
